:400000007d740030303030307d00687e7d006c7e7d00707e7d00747e7d00787e7d007c7e7d00807e7d00847e7d00887e7d008c7e7d00907e7d00947e7d00987e7d009c7e09
:400040007e3030307e3030307e3030307e3030307e3030307e3030307e3030307e3030307e3030307e3030307e3030307e3030307e3030307e3030307e3030307e303030a0
:400080007e3030307e3030307e3030307e3030307e3030307e3030307e3030307e303030020304050607711062fa0062e38770ef50202850402850602862e33841fefb507e
:4000c000804e62e33855f80055f900711062e00270ef62e338627105627505627905627d0562d10750004e62d30762d00062d50062d40071c07c039b62d00050025794088c
:4001000028530618750900284b5106800475090062e300082860d574a04b1875090008285306187509000828a01c53051875090008283f064706ffb0065dd57460d5187a60
:4001400005bfeb8fc9187509000828530550003f064706ffb0085dd57460d550007a05bfef188faa18711070ef62e000711062e00243e78070ef62e2007c03fd8fff501062
:400180007f303030303030303030303030303030303030303030303030303030303030303030303030303030303030303030303030303030303030303030303030303030f0
:4001c00030303030303030303030303030303030303030303030303030303030303030303030303030303030303030303030303030303030303030303030303030303030ff
:4002000030303030303030303030303030303030303030303030303030303030303030306028660063056500e600e700d600b000b100b200b333b433b500b600b855b9004f
:40024000ba10bb33bc33bd00be00c000c100c220c333c433c500c600c855c900ca30cb33cc33cd00ce006c006d006e006f00ff61006900600062006733683363006600d1f9
:4002800000d300d000d200e1f0e200df00de00dd00e700ff044c70ef62000071106200006201ff70ef6203ff620200711062020062030070ef620100620400711062048040
:4002c00062057f70ef62077f620600711062060062070070ef62050062080071106208006209ff70ef620bff620a007110620a00620b0070ef620900620c007110620c00da
:40030000620d0070ef620f00620e007110620e00620f0070ef620d00621000711062100062110070ef621300621200711062120062130070ef621100621400711062140015
:4003400062150070ef621700621600711062160062170070ef621500621800711062180062190070ef621b00621a007110621a00621b0070ef621900621c007110621c0055
:40038000621d0070ef621f00621e007110621e00621f0070ef621d0070ef7f7c03a27c02967f1070ef500067500257207c03bd5001675002576f7c03bd70ef207f380210ed
:4003c000084f56fc00d00456fc01182070ef62e30010082839ffa01f4f48fc01a003711054fd18207509001008284f59fd610018207509008fd738fc703f71c07f104f38cf
:400400000556040080403d0400a00956040041047f80075604014304805600005601005602005603000703010f02000f01000f0000520311205202194e5201190052003123
:40044000801980cfe18fc038fb208fffff00303030303030303030303030303030303030303030303030303030303030303030303030303030303030303030303030303024
:40048000303030303030303030303030303030303030303030303030303030303030303030303030303030303030303030303030303030303030303030303030303030303c
:4004c00030303030303030303030303030303030303030303030303030303030303030303030303030303030303030303030303030303030303030303030303030303030fc
:4005000030303030303030303030303030303030303030303030303030303030303030303030303030303030303030303030303030303030303030303030303030303030bb
:40054000303030303030303030303030303030303030303030303030303030303030303030303030303030303030303030303030303030303030303030303030303030307b
:4073c00030303030303030303030303030303030303030303030303030303030303030303030303030303030303030303030303030303030303030303030303030300000ed
:40740000711062e38770ef41fefb50804e55f80055f900711062e00270ef62e338627105627505627905627d0562d10750004e62d30762d00062d50062d40071c07c7aa317
:40744000711043e32070ef62e000711062e00270ef62e2007c78138fff104f38013dfb61c01762d00052fb1161530606060a5106646464645400800e62d00052fb11306452
:4074800064646454003dfc61c01362d00052fc1161530606060a51062d00800a62d00052fc11302d00520062d00038ff207f104f3801107c7c9c2062d000530626060851bc
:4074c0000654003c0600afeb107c7c992062d00038ff207f104f107c7ca72062d0005306470610aff21052fc7c7ca420207f104f801862d00052fc530552fb60d43e050882
:407500009fd238ff77fc0ffb0062d00052fc530552fb60d43e053900bfd9207f104f385456510081753d5100a00641047f800443048052517354519f7562d000540039536e
:40754000bff69f6a62d00054003953b003814d9f5d62d00054025200085202089efb38fe62d000540356010180389f4262d00054009f3b62d00054025200085202089ed922
:4075800038fe62d00053065504075a0306030352010203530350000a0460d551063f0377013d0144cfc59f0662d00054003946a00162d0005205530555060068066e056809
:4075c000066e0568066e0568066e0568066e0568066e055204530355040065036b0465036b0451030205530551040a06530651055448510654475a050605075105544a56cb
:407600004907564b195a050605471050070851055c187c7d6b2062d0005053089eb638ff560100806962d0005506075a0506050352010205530550000a0660d43e056767d2
:407640006767210f54003d000ac00607005780040700305200089e7c38ff62d0005506075a0506050352010205530550000a0660d43e05210f54023d020ac00607025780e8
:40768000040702305202089e4b38ff77013d0144cf945046089e3d38ff8e8b62d00050731057fe082853061875090028203c0600b0073900b00381585653c85652015650ac
:4076c00001564f00808362d0005250213f5305524f21003900b0393c0500b034525354485252544762d0005a050605035105544a564907564b195a05060547105007085168
:40770000055c187c7d6b2062d00077530f5200524f085250087c7d2338fe62d00053065504075a030603035250213f5301524f2100530251010203530351020a0460d551f5
:40774000063f0377500f4f0062d00050731057fe082853061875090028201350524f31805300510631801a00df5d525354485252544762d0005a050605035105544a5649c3
:4077800007564b193d5201b0063d53cfa01e62d0005a050605471050070851055c187c7d6b2062d0005653cf56520162d00050731057fe0828530618750900282051065347
:4077c00005470580b006550600800462d00062d0005105544150731057fe0828187509002820544252535448525254475a050605035105544a564907564b195a0506054716
:407800001050070851055c187c7d6b2062d00038ac207f104f381c56104356114f56124e56134e561445561543561654561700560c4f560d4b560e21560f001050007c7c2c
:407840009050007c7c9f205dff62d0005306470610a0c65a050605105007085105089c8e38fe107c7caa571f50ff7c7cb2570f50fe7c7cb87c7cae20561a008084107c7c69
:407880009c2062d0005306470608a059107c7c992062d00053065504075a03060301521a0203530350000a0460d551063f035506075a0506050c521a0205530550000a062a
:4078c00060d43e0553065a03060301521a0203530350000a0460d43e033a06b005771a8004561a003d1a03b01862d0005a0506050c5007085105089bf538fe9c1f500000e5
:40790000107c7cbe62d0005a06203c0600bf6f3900bf6b107c7c9520560b007c7cfc62d0003900b004560b0162d00050731057fe082853061875090028203c0600b0053978
:4079400000a05d561901561800803362d000521901005305521809721058052820541b5218085219087c7d2338fe62d0005306521b3a06a004560b0177190f180062d0001c
:4079800050731057fe082853061875090028201319521831805300510631801a00dfad5d0062d0005306470620b0093d0b00b0047d00a6430480560b0180db560b00560088
:4079c0000080569ae962d00053065504075a0306030152000203530350000a0460d551063f035506075a0506051052000205530550000a0660d43e0553065a03060301528d
:407a0000000203530350000a0460d43e033a06a006560b01800877003d0007cfa73d0b00a003807262d0005a0506050c5007085105089aba38fe56000080569a7162d000e2
:407a400053065504075a0306030152000203530350000a0460d551063f035506075a0506050c52000205530550000a0660d43e0553065a0306030152000203530350000ae6
:407a80000460d43e033a06a006560b01800877003d0003cfa73d0b00bf229a8050000038e4207f7c7b037c7aaa7f1070ef500067507b57ec7c7ac3500167507c57537c7ad8
:407ac000c3207f380210084f56fc00d00456fc01182070ef62e30010082839ffa01f4f48fc01a003711054fd18207509001008284f59fd610018207509008fd738fc703ff3
:407b000071c07f71106200106201cf70ef62038f620250711062020062030070ef620100711062048062057f70ef62077f620600711062060062070070ef62050071106266
:407b400008006209ff70ef620bff620a007110620a00620b0070ef6209007110620c00620d0070ef620f00620e007110620e00620f0070ef620d0071106210006211007094
:407b8000ef621300621200711062120062130070ef621100711062140062150070ef621700621600711062160062170070ef621500711062180062190070ef621b00621add
:407bc000007110621a00621b0070ef6219007110621c00621d0070ef621f00621e007110621e00621f0070ef621d007f6028660063056500e600e700d600b010b100b200f3
:407c0000b333b433b502b600b855b900ba10bb33bc33bd00be00c000c100c220c333c433c500c600c855c900ca30cb33cc33cd00ce006c006d006e006f00230021002200b3
:407c40002700258026402f002d002e002b0029002a00ff61006900600062006733683363006600d100d300d000d200e100e200df19de00dd00e70020112117224024312559
:407c80003726402c052de12e40281d29012a44ff2901602f7f4123fe7f5d2e7f5d2f7f2901602b7f60297f5d2b7f41e1fd7f4323017f60215b60257f60225b60267f4f5d3b
:407cc00026085d22085d23084123fe71105d210862210070ef5d245d26085d205d2208520060265201602271105203602170ef52026023182038fc703f71c07f1051060878
:407d0000500257a053065000283a06b0107606755b39a6bff21853062050017f1853062050007f104f51060851050851040852fb59fc5a0665066a65066a65066a65066abd
:407d400065066a65066a580653055506405504007a065105280404752e0600bff45104205a04205a05205a06207f3062d00053f85df70821c0b00756020055f80051f870dd
:407d8000bf60d355fd013cfd01b0c571105de00821f849fe10a00529038003290260e070ef65fd3cfd02b0a890b93900a00955ff0055fd10808565fd52016a52006a711044
:407dc00060fa70ef085201217f53fa08520553fc55fe5651fd3904b07708104f5b010353f955f83a500300201853fd3cf800a00b55ff0055fd1038fe804165fd1853fa189a
:407e0000711060fa70ef520353fb520260d4520653fc55fe5651fd3908b03508104f5b010353f955f83a500200201853fd55ff013cf800a00455ff0065fd3cfd10b01118a1
:407e4000711060e070ef65fd51ff3cfd20a004308ffe703f71c062d00062d50062d4007e30303055fa0362d500711062fa0070ef51fd3902bfda08104f5b010353f955f8a3
:407e80003a500600203cff01b085105dd308520460e82180b00951fd540757fb800751fa540757f862d300520060e95deb645dea6a7374030153fe47fe80a005507f53fef7
:407ec00060e8520267217f60e95dea53ff5deb646bff480201a00602fe0eff00646bffc008646bffc003800455ffff1860d351ff20540651fe540549fe10a0096906770642
:407f000069057705183902bf4753fd50007f183902bf3d53fd50017f62d00053f85df70821c0b00756020055f80051f870bf60d3520353fb520260d552047453fd520553bf
:407f4000fe5201646c00646c00646c00646c00646c00646c000852002008283ffb1875b002747afeb0057afda00f3cfb00bfeb085dd57460d5188fe2703f71c062d0006225
:407f8000d5007e30303030303030303030303030303030303030303030303030303030303030303030303030303030303030303030303030303030303030303030303030fe
:407fc0003030303030303030303030303030303030303030303030303030303030303030303030303030303030303030303030303030303030303030303030303030303081
:020000040010ea
:4000000003000000000000000000000000000000000000000000000000000000000000000000000000000000000000000000000000000000000000000000000000000000bd
:4000400000000000000000000000000000000000000000000000000000000000000000000000000000000000000000000000000000000000ffffffffffffffffffffffff8c
:020000040020da
:02000000be162a
:00000001ff
